{
  "_format": "hh-sol-artifact-1",
  "contractName": "CrowdFunding",
  "sourceName": "contracts/SmartAid.sol",
  "abi": [
    {
      "inputs": [
        {
          "internalType": "uint256",
          "name": "",
          "type": "uint256"
        }
      ],
      "name": "campaigns",
      "outputs": [
        {
          "internalType": "address payable",
          "name": "owner",
          "type": "address"
        },
        {
          "internalType": "string",
          "name": "title",
          "type": "string"
        },
        {
          "internalType": "string",
          "name": "description",
          "type": "string"
        },
        {
          "internalType": "uint256",
          "name": "target",
          "type": "uint256"
        },
        {
          "internalType": "uint256",
          "name": "deadline",
          "type": "uint256"
        },
        {
          "internalType": "uint256",
          "name": "amountCollected",
          "type": "uint256"
        },
        {
          "internalType": "string",
          "name": "image",
          "type": "string"
        }
      ],
      "stateMutability": "view",
      "type": "function"
    },
    {
      "inputs": [
        {
          "internalType": "address payable",
          "name": "_owner",
          "type": "address"
        },
        {
          "internalType": "string",
          "name": "_title",
          "type": "string"
        },
        {
          "internalType": "string",
          "name": "_description",
          "type": "string"
        },
        {
          "internalType": "uint256",
          "name": "_target",
          "type": "uint256"
        },
        {
          "internalType": "uint256",
          "name": "_deadline",
          "type": "uint256"
        },
        {
          "internalType": "string",
          "name": "_image",
          "type": "string"
        }
      ],
      "name": "createCampaign",
      "outputs": [
        {
          "internalType": "uint256",
          "name": "",
          "type": "uint256"
        }
      ],
      "stateMutability": "nonpayable",
      "type": "function"
    },
    {
      "inputs": [
        {
          "internalType": "uint256",
          "name": "_id",
          "type": "uint256"
        }
      ],
      "name": "donateToCampaign",
      "outputs": [],
      "stateMutability": "payable",
      "type": "function"
    },
    {
      "inputs": [],
      "name": "getCampaigns",
      "outputs": [
        {
          "components": [
            {
              "internalType": "address payable",
              "name": "owner",
              "type": "address"
            },
            {
              "internalType": "string",
              "name": "title",
              "type": "string"
            },
            {
              "internalType": "string",
              "name": "description",
              "type": "string"
            },
            {
              "internalType": "uint256",
              "name": "target",
              "type": "uint256"
            },
            {
              "internalType": "uint256",
              "name": "deadline",
              "type": "uint256"
            },
            {
              "internalType": "uint256",
              "name": "amountCollected",
              "type": "uint256"
            },
            {
              "internalType": "string",
              "name": "image",
              "type": "string"
            },
            {
              "internalType": "address[]",
              "name": "donators",
              "type": "address[]"
            },
            {
              "internalType": "uint256[]",
              "name": "donations",
              "type": "uint256[]"
            }
          ],
          "internalType": "struct CrowdFunding.Campaign[]",
          "name": "",
          "type": "tuple[]"
        }
      ],
      "stateMutability": "view",
      "type": "function"
    },
    {
      "inputs": [
        {
          "internalType": "uint256",
          "name": "_id",
          "type": "uint256"
        }
      ],
      "name": "getDonators",
      "outputs": [
        {
          "internalType": "address[]",
          "name": "",
          "type": "address[]"
        },
        {
          "internalType": "uint256[]",
          "name": "",
          "type": "uint256[]"
        }
      ],
      "stateMutability": "view",
      "type": "function"
    },
    {
      "inputs": [],
      "name": "numberOfCampaigns",
      "outputs": [
        {
          "internalType": "uint256",
          "name": "",
          "type": "uint256"
        }
      ],
      "stateMutability": "view",
      "type": "function"
    },
    {
      "inputs": [
        {
          "internalType": "uint256",
          "name": "_id",
          "type": "uint256"
        }
      ],
      "name": "withdrawFunds",
      "outputs": [],
      "stateMutability": "nonpayable",
      "type": "function"
    }
  ],
  "bytecode": "0x6080604052600060015534801561001557600080fd5b50611c5f806100256000396000f3fe6080604052600436106100705760003560e01c8063155dd5ee1161004e578063155dd5ee1461012157806342a4fda81461014a5780639943e3a114610166578063a6b03633146101a357610070565b806307ca140d146100755780630fa91fa9146100a0578063141961bc146100de575b600080fd5b34801561008157600080fd5b5061008a6101ce565b6040516100979190610cf5565b60405180910390f35b3480156100ac57600080fd5b506100c760048036038101906100c29190610d50565b6101d4565b6040516100d5929190610f2b565b60405180910390f35b3480156100ea57600080fd5b5061010560048036038101906101009190610d50565b6102e4565b6040516101189796959493929190611013565b60405180910390f35b34801561012d57600080fd5b5061014860048036038101906101439190610d50565b6104de565b005b610164600480360381019061015f9190610d50565b6106b6565b005b34801561017257600080fd5b5061018d600480360381019061018891906111f8565b610781565b60405161019a9190610cf5565b60405180910390f35b3480156101af57600080fd5b506101b86108a4565b6040516101c591906115b3565b60405180910390f35b60015481565b6060806000808481526020019081526020016000206007016000808581526020019081526020016000206008018180548060200260200160405190810160405280929190818152602001828054801561028257602002820191906000526020600020905b8160009054906101000a900473ffffffffffffffffffffffffffffffffffffffff1673ffffffffffffffffffffffffffffffffffffffff1681526020019060010190808311610238575b50505050509150808054806020026020016040519081016040528092919081815260200182805480156102d457602002820191906000526020600020905b8154815260200190600101908083116102c0575b5050505050905091509150915091565b60006020528060005260406000206000915090508060000160009054906101000a900473ffffffffffffffffffffffffffffffffffffffff169080600101805461032d90611604565b80601f016020809104026020016040519081016040528092919081815260200182805461035990611604565b80156103a65780601f1061037b576101008083540402835291602001916103a6565b820191906000526020600020905b81548152906001019060200180831161038957829003601f168201915b5050505050908060020180546103bb90611604565b80601f01602080910402602001604051908101604052809291908181526020018280546103e790611604565b80156104345780601f1061040957610100808354040283529160200191610434565b820191906000526020600020905b81548152906001019060200180831161041757829003601f168201915b50505050509080600301549080600401549080600501549080600601805461045b90611604565b80601f016020809104026020016040519081016040528092919081815260200182805461048790611604565b80156104d45780601f106104a9576101008083540402835291602001916104d4565b820191906000526020600020905b8154815290600101906020018083116104b757829003601f168201915b5050505050905087565b600080600083815260200190815260200160002090503373ffffffffffffffffffffffffffffffffffffffff168160000160009054906101000a900473ffffffffffffffffffffffffffffffffffffffff1673ffffffffffffffffffffffffffffffffffffffff1614610586576040517f08c379a000000000000000000000000000000000000000000000000000000000815260040161057d906116a7565b60405180910390fd5b60008160050154116105cd576040517f08c379a00000000000000000000000000000000000000000000000000000000081526004016105c490611713565b60405180910390fd5b6000816005015490506000826005018190555060008260000160009054906101000a900473ffffffffffffffffffffffffffffffffffffffff1673ffffffffffffffffffffffffffffffffffffffff168260405161062a90611764565b60006040518083038185875af1925050503d8060008114610667576040519150601f19603f3d011682016040523d82523d6000602084013e61066c565b606091505b50509050806106b0576040517f08c379a00000000000000000000000000000000000000000000000000000000081526004016106a7906117eb565b60405180910390fd5b50505050565b60003490506000806000848152602001908152602001600020905080600701339080600181540180825580915050600190039060005260206000200160009091909190916101000a81548173ffffffffffffffffffffffffffffffffffffffff021916908373ffffffffffffffffffffffffffffffffffffffff1602179055508060080182908060018154018082558091505060019003906000526020600020016000909190919091505581816005016000828254610775919061183a565b92505081905550505050565b600080600080600154815260200190815260200160002090504284116107dc576040517f08c379a00000000000000000000000000000000000000000000000000000000081526004016107d3906118e0565b60405180910390fd5b878160000160006101000a81548173ffffffffffffffffffffffffffffffffffffffff021916908373ffffffffffffffffffffffffffffffffffffffff160217905550868160010190816108309190611aac565b50858160020190816108429190611aac565b5084816003018190555083816004018190555060008160050181905550828160060190816108709190611aac565b506001600081548092919061088490611b7e565b9190505550600180546108979190611bc6565b9150509695505050505050565b6060600060015467ffffffffffffffff8111156108c4576108c36110cd565b5b6040519080825280602002602001820160405280156108fd57816020015b6108ea610c7a565b8152602001906001900390816108e25790505b50905060005b600154811015610c72576000806000838152602001908152602001600020905080604051806101200160405290816000820160009054906101000a900473ffffffffffffffffffffffffffffffffffffffff1673ffffffffffffffffffffffffffffffffffffffff1673ffffffffffffffffffffffffffffffffffffffff16815260200160018201805461099690611604565b80601f01602080910402602001604051908101604052809291908181526020018280546109c290611604565b8015610a0f5780601f106109e457610100808354040283529160200191610a0f565b820191906000526020600020905b8154815290600101906020018083116109f257829003601f168201915b50505050508152602001600282018054610a2890611604565b80601f0160208091040260200160405190810160405280929190818152602001828054610a5490611604565b8015610aa15780601f10610a7657610100808354040283529160200191610aa1565b820191906000526020600020905b815481529060010190602001808311610a8457829003601f168201915b50505050508152602001600382015481526020016004820154815260200160058201548152602001600682018054610ad890611604565b80601f0160208091040260200160405190810160405280929190818152602001828054610b0490611604565b8015610b515780601f10610b2657610100808354040283529160200191610b51565b820191906000526020600020905b815481529060010190602001808311610b3457829003601f168201915b5050505050815260200160078201805480602002602001604051908101604052809291908181526020018280548015610bdf57602002820191906000526020600020905b8160009054906101000a900473ffffffffffffffffffffffffffffffffffffffff1673ffffffffffffffffffffffffffffffffffffffff1681526020019060010190808311610b95575b5050505050815260200160088201805480602002602001604051908101604052809291908181526020018280548015610c3757602002820191906000526020600020905b815481526020019060010190808311610c23575b505050505081525050838381518110610c5357610c52611bfa565b5b6020026020010181905250508080610c6a90611b7e565b915050610903565b508091505090565b604051806101200160405280600073ffffffffffffffffffffffffffffffffffffffff16815260200160608152602001606081526020016000815260200160008152602001600081526020016060815260200160608152602001606081525090565b6000819050919050565b610cef81610cdc565b82525050565b6000602082019050610d0a6000830184610ce6565b92915050565b6000604051905090565b600080fd5b600080fd5b610d2d81610cdc565b8114610d3857600080fd5b50565b600081359050610d4a81610d24565b92915050565b600060208284031215610d6657610d65610d1a565b5b6000610d7484828501610d3b565b91505092915050565b600081519050919050565b600082825260208201905092915050565b6000819050602082019050919050565b600073ffffffffffffffffffffffffffffffffffffffff82169050919050565b6000610dd482610da9565b9050919050565b610de481610dc9565b82525050565b6000610df68383610ddb565b60208301905092915050565b6000602082019050919050565b6000610e1a82610d7d565b610e248185610d88565b9350610e2f83610d99565b8060005b83811015610e60578151610e478882610dea565b9750610e5283610e02565b925050600181019050610e33565b5085935050505092915050565b600081519050919050565b600082825260208201905092915050565b6000819050602082019050919050565b610ea281610cdc565b82525050565b6000610eb48383610e99565b60208301905092915050565b6000602082019050919050565b6000610ed882610e6d565b610ee28185610e78565b9350610eed83610e89565b8060005b83811015610f1e578151610f058882610ea8565b9750610f1083610ec0565b925050600181019050610ef1565b5085935050505092915050565b60006040820190508181036000830152610f458185610e0f565b90508181036020830152610f598184610ecd565b90509392505050565b6000610f6d82610da9565b9050919050565b610f7d81610f62565b82525050565b600081519050919050565b600082825260208201905092915050565b60005b83811015610fbd578082015181840152602081019050610fa2565b60008484015250505050565b6000601f19601f8301169050919050565b6000610fe582610f83565b610fef8185610f8e565b9350610fff818560208601610f9f565b61100881610fc9565b840191505092915050565b600060e082019050611028600083018a610f74565b818103602083015261103a8189610fda565b9050818103604083015261104e8188610fda565b905061105d6060830187610ce6565b61106a6080830186610ce6565b61107760a0830185610ce6565b81810360c08301526110898184610fda565b905098975050505050505050565b6110a081610f62565b81146110ab57600080fd5b50565b6000813590506110bd81611097565b92915050565b600080fd5b600080fd5b7f4e487b7100000000000000000000000000000000000000000000000000000000600052604160045260246000fd5b61110582610fc9565b810181811067ffffffffffffffff82111715611124576111236110cd565b5b80604052505050565b6000611137610d10565b905061114382826110fc565b919050565b600067ffffffffffffffff821115611163576111626110cd565b5b61116c82610fc9565b9050602081019050919050565b82818337600083830152505050565b600061119b61119684611148565b61112d565b9050828152602081018484840111156111b7576111b66110c8565b5b6111c2848285611179565b509392505050565b600082601f8301126111df576111de6110c3565b5b81356111ef848260208601611188565b91505092915050565b60008060008060008060c0878903121561121557611214610d1a565b5b600061122389828a016110ae565b965050602087013567ffffffffffffffff81111561124457611243610d1f565b5b61125089828a016111ca565b955050604087013567ffffffffffffffff81111561127157611270610d1f565b5b61127d89828a016111ca565b945050606061128e89828a01610d3b565b935050608061129f89828a01610d3b565b92505060a087013567ffffffffffffffff8111156112c0576112bf610d1f565b5b6112cc89828a016111ca565b9150509295509295509295565b600081519050919050565b600082825260208201905092915050565b6000819050602082019050919050565b61130e81610f62565b82525050565b600082825260208201905092915050565b600061133082610f83565b61133a8185611314565b935061134a818560208601610f9f565b61135381610fc9565b840191505092915050565b600082825260208201905092915050565b600061137a82610d7d565b611384818561135e565b935061138f83610d99565b8060005b838110156113c05781516113a78882610dea565b97506113b283610e02565b925050600181019050611393565b5085935050505092915050565b600082825260208201905092915050565b60006113e982610e6d565b6113f381856113cd565b93506113fe83610e89565b8060005b8381101561142f5781516114168882610ea8565b975061142183610ec0565b925050600181019050611402565b5085935050505092915050565b6000610120830160008301516114556000860182611305565b506020830151848203602086015261146d8282611325565b915050604083015184820360408601526114878282611325565b915050606083015161149c6060860182610e99565b5060808301516114af6080860182610e99565b5060a08301516114c260a0860182610e99565b5060c083015184820360c08601526114da8282611325565b91505060e083015184820360e08601526114f4828261136f565b91505061010083015184820361010086015261151082826113de565b9150508091505092915050565b6000611529838361143c565b905092915050565b6000602082019050919050565b6000611549826112d9565b61155381856112e4565b935083602082028501611565856112f5565b8060005b858110156115a15784840389528151611582858261151d565b945061158d83611531565b925060208a01995050600181019050611569565b50829750879550505050505092915050565b600060208201905081810360008301526115cd818461153e565b905092915050565b7f4e487b7100000000000000000000000000000000000000000000000000000000600052602260045260246000fd5b6000600282049050600182168061161c57607f821691505b60208210810361162f5761162e6115d5565b5b50919050565b7f4f6e6c79207468652063616d706169676e206f776e65722063616e207769746860008201527f647261772066756e64732e000000000000000000000000000000000000000000602082015250565b6000611691602b83610f8e565b915061169c82611635565b604082019050919050565b600060208201905081810360008301526116c081611684565b9050919050565b7f4e6f2066756e647320617661696c61626c6520746f2077697468647261772e00600082015250565b60006116fd601f83610f8e565b9150611708826116c7565b602082019050919050565b6000602082019050818103600083015261172c816116f0565b9050919050565b600081905092915050565b50565b600061174e600083611733565b91506117598261173e565b600082019050919050565b600061176f82611741565b9150819050919050565b7f4661696c656420746f2073656e642066756e647320746f207468652063616d7060008201527f6169676e206f776e65722e000000000000000000000000000000000000000000602082015250565b60006117d5602b83610f8e565b91506117e082611779565b604082019050919050565b60006020820190508181036000830152611804816117c8565b9050919050565b7f4e487b7100000000000000000000000000000000000000000000000000000000600052601160045260246000fd5b600061184582610cdc565b915061185083610cdc565b92508282019050808211156118685761186761180b565b5b92915050565b7f54686520646561646c696e652073686f756c642062652061206461746520696e60008201527f20746865206675747572652e0000000000000000000000000000000000000000602082015250565b60006118ca602c83610f8e565b91506118d58261186e565b604082019050919050565b600060208201905081810360008301526118f9816118bd565b9050919050565b60008190508160005260206000209050919050565b60006020601f8301049050919050565b600082821b905092915050565b6000600883026119627fffffffffffffffffffffffffffffffffffffffffffffffffffffffffffffffff82611925565b61196c8683611925565b95508019841693508086168417925050509392505050565b6000819050919050565b60006119a96119a461199f84610cdc565b611984565b610cdc565b9050919050565b6000819050919050565b6119c38361198e565b6119d76119cf826119b0565b848454611932565b825550505050565b600090565b6119ec6119df565b6119f78184846119ba565b505050565b5b81811015611a1b57611a106000826119e4565b6001810190506119fd565b5050565b601f821115611a6057611a3181611900565b611a3a84611915565b81016020851015611a49578190505b611a5d611a5585611915565b8301826119fc565b50505b505050565b600082821c905092915050565b6000611a8360001984600802611a65565b1980831691505092915050565b6000611a9c8383611a72565b9150826002028217905092915050565b611ab582610f83565b67ffffffffffffffff811115611ace57611acd6110cd565b5b611ad88254611604565b611ae3828285611a1f565b600060209050601f831160018114611b165760008415611b04578287015190505b611b0e8582611a90565b865550611b76565b601f198416611b2486611900565b60005b82811015611b4c57848901518255600182019150602085019450602081019050611b27565b86831015611b695784890151611b65601f891682611a72565b8355505b6001600288020188555050505b505050505050565b6000611b8982610cdc565b91507fffffffffffffffffffffffffffffffffffffffffffffffffffffffffffffffff8203611bbb57611bba61180b565b5b600182019050919050565b6000611bd182610cdc565b9150611bdc83610cdc565b9250828203905081811115611bf457611bf361180b565b5b92915050565b7f4e487b7100000000000000000000000000000000000000000000000000000000600052603260045260246000fdfea26469706673582212209f2540a589f04e64018865335fd36660fe52498ca2476382a2226fa0a4c716aa64736f6c63430008120033",
  "linkReferences": {},
  "deployedLinkReferences": {}
}